{
  "contractName": "tic_tac_toe",
  "abi": [
    {
      "inputs": [],
      "name": "resetGame",
      "outputs": [
        {
          "internalType": "string",
          "name": "",
          "type": "string"
        }
      ],
      "stateMutability": "nonpayable",
      "type": "function"
    },
    {
      "inputs": [
        {
          "internalType": "string",
          "name": "_char",
          "type": "string"
        }
      ],
      "name": "toss",
      "outputs": [
        {
          "internalType": "string",
          "name": "",
          "type": "string"
        }
      ],
      "stateMutability": "nonpayable",
      "type": "function"
    },
    {
      "inputs": [
        {
          "internalType": "uint8",
          "name": "_cell",
          "type": "uint8"
        }
      ],
      "name": "setNextMove",
      "outputs": [
        {
          "internalType": "string",
          "name": "",
          "type": "string"
        }
      ],
      "stateMutability": "nonpayable",
      "type": "function"
    }
  ],
  "bytecode": "0x60806040526040518061010001604052806040518060600160405280600060ff168152602001600160ff168152602001600260ff1681525081526020016040518060600160405280600360ff168152602001600460ff168152602001600560ff1681525081526020016040518060600160405280600660ff168152602001600760ff168152602001600860ff1681525081526020016040518060600160405280600060ff168152602001600360ff168152602001600660ff1681525081526020016040518060600160405280600160ff168152602001600460ff168152602001600760ff1681525081526020016040518060600160405280600260ff168152602001600560ff168152602001600860ff1681525081526020016040518060600160405280600060ff168152602001600460ff168152602001600860ff1681525081526020016040518060600160405280600260ff168152602001600460ff168152602001600660ff16815250815250600c9060086200018092919062000195565b503480156200018e57600080fd5b50620002b8565b828054828255906000526020600020908101928215620001e4579160200282015b82811115620001e357825182906003620001d2929190620001f7565b5091602001919060010190620001b6565b5b509050620001f391906200024e565b5090565b8280548282559060005260206000209081019282156200023b579160200282015b828111156200023a578251829060ff1690559160200191906001019062000218565b5b5090506200024a919062000276565b5090565b5b8082111562000272576000818162000268919062000295565b506001016200024f565b5090565b5b808211156200029157600081600090555060010162000277565b5090565b5080546000825590600052602060002090810190620002b5919062000276565b50565b61175880620002c86000396000f3fe608060405234801561001057600080fd5b50600436106100415760003560e01c806302b97a11146100465780635ecf7b261461017a578063bb47221914610224575b600080fd5b6100ff6004803603602081101561005c57600080fd5b810190808035906020019064010000000081111561007957600080fd5b82018360208201111561008b57600080fd5b803590602001918460018302840111640100000000831117156100ad57600080fd5b91908080601f016020809104026020016040519081016040528093929190818152602001838380828437600081840152601f19601f8201169050808301925050505050505091929192905050506102a7565b6040518080602001828103825283818151815260200191508051906020019080838360005b8381101561013f578082015181840152602081019050610124565b50505050905090810190601f16801561016c5780820380516001836020036101000a031916815260200191505b509250505060405180910390f35b6101a96004803603602081101561019057600080fd5b81019080803560ff169060200190929190505050610482565b6040518080602001828103825283818151815260200191508051906020019080838360005b838110156101e95780820151818401526020810190506101ce565b50505050905090810190601f1680156102165780820380516001836020036101000a031916815260200191505b509250505060405180910390f35b61022c610afb565b6040518080602001828103825283818151815260200191508051906020019080838360005b8381101561026c578082015181840152602081019050610251565b50505050905090810190601f1680156102995780820380516001836020036101000a031916815260200191505b509250505060405180910390f35b60606102b282610c2e565b610324576040517f08c379a00000000000000000000000000000000000000000000000000000000081526004018080602001828103825260118152602001807f496e76616c69642063686172616374657200000000000000000000000000000081525060200191505060405180910390fd5b61032d82610f5a565b1561038b5760016009819055506040518060400160405280601081526020017f4649525354204d4f564520464f52205800000000000000000000000000000000815250600b9080519060200190610385929190611685565b506103e0565b60026009819055506040518060400160405280601081526020017f4649525354204d4f564520464f52204f00000000000000000000000000000000815250600b90805190602001906103de929190611685565b505b600b8054600181600116156101000203166002900480601f0160208091040260200160405190810160405280929190818152602001828054600181600116156101000203166002900480156104765780601f1061044b57610100808354040283529160200191610476565b820191906000526020600020905b81548152906001019060200180831161045957829003601f168201915b50505050509050919050565b606060008260ff16108061049a575060098260ff1610155b156104dc576040518060400160405280601481526020017f494e56414c49442043454c4c204e554d4245522e0000000000000000000000008152509050610af6565b600015156104e86110f6565b15151415806104f957506009600a54145b1561053b576040518060400160405280601e81526020017f544849532047414d4520495320414c52454144592046494e49534845442e00008152509050610af6565b6000808360ff166009811061054c57fe5b015414610590576040518060400160405280601e81526020017f544849532043454c4c20495320414c5245414459204f434355504945442e00008152509050610af6565b60095460008360ff16600981106105a357fe5b0181905550600a6000815480929190600101919050555060606105c88360ff1661126d565b90506005600a541015610711576001600954141561067857600260098190555061065d6040518060400160405280601181526020017f582046494c4c45442041542043454c4c20000000000000000000000000000000815250826040518060400160405280601281526020017f2e204e455854204d4f564520464f52204f2e0000000000000000000000000000815250611569565b600b9080519060200190610672929190611685565b5061070c565b60016009819055506106f56040518060400160405280601181526020017f4f2046494c4c45442041542043454c4c20000000000000000000000000000000815250826040518060400160405280601281526020017f2e204e455854204d4f564520464f5220582e0000000000000000000000000000815250611569565b600b908051906020019061070a929190611685565b505b610a57565b6005600a541015801561072657506009600a54105b15610923576107336110f6565b156107e65760016009541415610794576040518060400160405280600781526020017f582057494e532e00000000000000000000000000000000000000000000000000815250600b908051906020019061078e929190611685565b506107e1565b6040518060400160405280600781526020017f4f2057494e532e00000000000000000000000000000000000000000000000000815250600b90805190602001906107df929190611685565b505b61091e565b6001600954141561088957600260098190555061086e6040518060400160405280601181526020017f582046494c4c45442041542043454c4c20000000000000000000000000000000815250826040518060400160405280601281526020017f2e204e455854204d4f564520464f52204f2e0000000000000000000000000000815250611569565b600b9080519060200190610883929190611685565b5061091d565b60016009819055506109066040518060400160405280601181526020017f4f2046494c4c45442041542043454c4c20000000000000000000000000000000815250826040518060400160405280601281526020017f2e204e455854204d4f564520464f5220582e0000000000000000000000000000815250611569565b600b908051906020019061091b929190611685565b505b5b610a56565b6009600a541415610a55576109366110f6565b801561094457506001600954145b1561099a576040518060400160405280600781526020017f582057494e532e00000000000000000000000000000000000000000000000000815250600b9080519060200190610994929190611685565b50610a54565b6109a26110f6565b80156109b057506002600954145b15610a06576040518060400160405280600781526020017f4f2057494e532e00000000000000000000000000000000000000000000000000815250600b9080519060200190610a00929190611685565b50610a53565b6040518060400160405280600b81526020017f47414d452044524157532e000000000000000000000000000000000000000000815250600b9080519060200190610a51929190611685565b505b5b5b5b5b600b8054600181600116156101000203166002900480601f016020809104026020016040519081016040528092919081815260200182805460018160011615610100020316600290048015610aed5780601f10610ac257610100808354040283529160200191610aed565b820191906000526020600020905b815481529060010190602001808311610ad057829003601f168201915b50505050509150505b919050565b6060600060098190555060005b60098160ff161015610b395760095460008260ff1660098110610b2757fe5b01819055508080600101915050610b08565b506000600a819055506040518060400160405280600a81526020017f53544152542047414d4500000000000000000000000000000000000000000000815250600b9080519060200190610b8d929190611685565b50600b8054600181600116156101000203166002900480601f016020809104026020016040519081016040528092919081815260200182805460018160011615610100020316600290048015610c245780601f10610bf957610100808354040283529160200191610c24565b820191906000526020600020905b815481529060010190602001808311610c0757829003601f168201915b5050505050905090565b600060405160200180807f5800000000000000000000000000000000000000000000000000000000000000815250600101905060405160208183030381529060405280519060200120826040516020018082805190602001908083835b60208310610cae5780518252602082019150602081019050602083039250610c8b565b6001836020036101000a038019825116818451168082178552505050505050905001915050604051602081830303815290604052805190602001201415610cf85760019050610f55565b60405160200180807f7800000000000000000000000000000000000000000000000000000000000000815250600101905060405160208183030381529060405280519060200120826040516020018082805190602001908083835b60208310610d765780518252602082019150602081019050602083039250610d53565b6001836020036101000a038019825116818451168082178552505050505050905001915050604051602081830303815290604052805190602001201415610dc05760019050610f55565b60405160200180807f4f00000000000000000000000000000000000000000000000000000000000000815250600101905060405160208183030381529060405280519060200120826040516020018082805190602001908083835b60208310610e3e5780518252602082019150602081019050602083039250610e1b565b6001836020036101000a038019825116818451168082178552505050505050905001915050604051602081830303815290604052805190602001201415610e885760019050610f55565b60405160200180807f6f00000000000000000000000000000000000000000000000000000000000000815250600101905060405160208183030381529060405280519060200120826040516020018082805190602001908083835b60208310610f065780518252602082019150602081019050602083039250610ee3565b6001836020036101000a038019825116818451168082178552505050505050905001915050604051602081830303815290604052805190602001201415610f505760019050610f55565b600090505b919050565b600060405160200180807f5800000000000000000000000000000000000000000000000000000000000000815250600101905060405160208183030381529060405280519060200120826040516020018082805190602001908083835b60208310610fda5780518252602082019150602081019050602083039250610fb7565b6001836020036101000a03801982511681845116808217855250505050505090500191505060405160208183030381529060405280519060200120141561102457600190506110f1565b60405160200180807f7800000000000000000000000000000000000000000000000000000000000000815250600101905060405160208183030381529060405280519060200120826040516020018082805190602001908083835b602083106110a2578051825260208201915060208101905060208303925061107f565b6001836020036101000a0380198251168184511680821785525050505050509050019150506040516020818303038152906040528051906020012014156110ec57600190506110f1565b600090505b919050565b600080600954141561110b576000905061126a565b60005b6008811015611264576060600c828154811061112657fe5b9060005260206000200180548060200260200160405190810160405280929190818152602001828054801561117a57602002820191906000526020600020905b815481526020019060010190808311611166575b5050505050905060095460008260008151811061119357fe5b6020026020010151600981106111a557fe5b01541480156111f757506000816000815181106111be57fe5b6020026020010151600981106111d057fe5b01546000826001815181106111e157fe5b6020026020010151600981106111f357fe5b0154145b8015611246575060008160008151811061120d57fe5b60200260200101516009811061121f57fe5b015460008260028151811061123057fe5b60200260200101516009811061124257fe5b0154145b156112565760019250505061126a565b50808060010191505061110e565b50600090505b90565b606060008214156112b5576040518060400160405280600181526020017f30000000000000000000000000000000000000000000000000000000000000008152509050611564565b60018214156112fb576040518060400160405280600181526020017f31000000000000000000000000000000000000000000000000000000000000008152509050611564565b6002821415611341576040518060400160405280600181526020017f32000000000000000000000000000000000000000000000000000000000000008152509050611564565b6003821415611387576040518060400160405280600181526020017f33000000000000000000000000000000000000000000000000000000000000008152509050611564565b60048214156113cd576040518060400160405280600181526020017f34000000000000000000000000000000000000000000000000000000000000008152509050611564565b6005821415611413576040518060400160405280600181526020017f35000000000000000000000000000000000000000000000000000000000000008152509050611564565b6006821415611459576040518060400160405280600181526020017f36000000000000000000000000000000000000000000000000000000000000008152509050611564565b600782141561149f576040518060400160405280600181526020017f37000000000000000000000000000000000000000000000000000000000000008152509050611564565b60088214156114e5576040518060400160405280600181526020017f38000000000000000000000000000000000000000000000000000000000000008152509050611564565b600982141561152b576040518060400160405280600181526020017f39000000000000000000000000000000000000000000000000000000000000008152509050611564565b6040518060400160405280600e81526020017f496e76616c6964206e756d62657200000000000000000000000000000000000081525090505b919050565b60608383836040516020018084805190602001908083835b602083106115a45780518252602082019150602081019050602083039250611581565b6001836020036101000a03801982511681845116808217855250505050505090500183805190602001908083835b602083106115f557805182526020820191506020810190506020830392506115d2565b6001836020036101000a03801982511681845116808217855250505050505090500182805190602001908083835b602083106116465780518252602082019150602081019050602083039250611623565b6001836020036101000a038019825116818451168082178552505050505050905001935050505060405160208183030381529060405290509392505050565b828054600181600116156101000203166002900490600052602060002090601f016020900481019282601f106116c657805160ff19168380011785556116f4565b828001600101855582156116f4579182015b828111156116f35782518255916020019190600101906116d8565b5b5090506117019190611705565b5090565b5b8082111561171e576000816000905550600101611706565b509056fea2646970667358221220b9349d8f31884688402ebadccdd7dacde49ae9ae37c8cf9a693253209cb68cec64736f6c63430007000033",
  "immutableReferences": {},
  "source": "// SPDX-License-Identifier: GPL-3.0\npragma solidity ^0.7.0;\n\ncontract tic_tac_toe {\n    \n    // State variables\n    uint[9] board;\n    uint turn;\n    uint filled;\n    string status;\n    \n    // Test cases for a win\n    uint[][]  tests = [\n        [0,1,2],[3,4,5],[6,7,8], \n        [0,3,6],[1,4,7],[2,5,8], \n        [0,4,8],[2,4,6]\n    ];\n    \n    // constructor() {\n    //     resetGame();\n    // }\n    \n    // Function for resetting the game\n    function resetGame() public returns (string memory) {\n        turn = 0;\n        \n        for (uint8 i = 0; i < 9; i++) {\n            board[i] = turn;\n        }\n        \n        filled = 0;\n        status = \"START GAME\";\n        \n        return status;\n    }\n    \n    // Function for determining which symbol ('X' or 'O') will go first.\n    function toss(string memory _char) public returns (string memory) {\n        require (compareString(_char), 'Invalid character');\n        \n        if (isStringX(_char)) {\n            turn = 1;\n            status = \"FIRST MOVE FOR X\";\n        } else {\n            turn = 2;\n            status = \"FIRST MOVE FOR O\";\n        }\n        \n        return status;\n    }\n    \n    // Function for setting the move.\n    function setNextMove(uint8 _cell) public returns (string memory)  {\n        \n        // require(isCellFilled(_cell), \"This cell is already filled.\");\n        // require(checkResult() != false, \"This game is already finished.\");\n        \n        if (_cell < 0 || _cell >= 9) {\n            // If the given cell number is less than 0, or greater than or equal to 9,\n            // then it will be an invalid condition.\n            return \"INVALID CELL NUMBER.\";\n        } else if (checkResult() != false || filled == 9) {\n            // If the game is already won, or all the cells are filled,\n            // there no point to continue.\n            return \"THIS GAME IS ALREADY FINISHED.\";\n        } else if (board[_cell] != 0) {\n            // If that cell is not empty\n            return \"THIS CELL IS ALREADY OCCUPIED.\";\n        } else {\n            board[_cell] = turn;\n            filled++;\n            \n            string memory cellStringified = uintToString(_cell);\n            \n            if (filled < 5) {\n                // In order to determine a winner, atleast 5 cells must be filled.\n                // If not, we should do only normal operations.\n                if (turn == 1) {\n                    turn = 2;\n                    status = append(\"X FILLED AT CELL \", cellStringified, \". NEXT MOVE FOR O.\");\n                } else {\n                    turn = 1;\n                    status = append(\"O FILLED AT CELL \", cellStringified, \". NEXT MOVE FOR X.\");\n                }\n                \n            } else if (filled >= 5 && filled < 9) {\n                // If the number of filled cells exceeds 4 and less than 9,\n                // then we should check whether there is a winner or not.\n                if (checkResult()) {\n                    if (turn == 1) {\n                        status = \"X WINS.\";\n                    } else {\n                        status = \"O WINS.\";\n                    }\n                    \n                } else {\n                    if (turn == 1) {\n                        turn = 2;\n                        status = append(\"X FILLED AT CELL \", cellStringified, \". NEXT MOVE FOR O.\");\n                    } else {\n                        turn = 1;\n                        status = append(\"O FILLED AT CELL \", cellStringified, \". NEXT MOVE FOR X.\");\n                    }\n                }\n            } else if (filled == 9) {\n                // If all the cells are filled, either there should be a winner,\n                // or the game draws.\n                if (checkResult() && turn == 1) {\n                    status = \"X WINS.\";\n                } else if (checkResult() && turn == 2) {\n                    status = \"O WINS.\";\n                } else {\n                    status = \"GAME DRAWS.\";\n                }\n            }\n            \n            return status;\n        }\n    }\n    \n    // Functions for checking whether a winner is available, or not\n    function checkResult() private view returns (bool) {\n        if (turn == 0) {\n            return false;\n        }\n        \n        for (uint i = 0; i < 8; i++) {\n            uint[] memory test = tests[i];\n            if (\n                board[test[0]] == turn && \n                board[test[1]] == board[test[0]] && \n                board[test[2]] == board[test[0]]\n            ) {\n                return true;\n            }\n        }\n        return false;\n    }\n    \n    // Function for checking whether the input to the toss() function is\n    // invalid or not.\n    function compareString(string memory _char) private pure returns (bool) {\n        if (keccak256(abi.encodePacked((_char))) == keccak256(abi.encodePacked(('X')))) {\n            return true;\n        } else if (keccak256(abi.encodePacked((_char))) == keccak256(abi.encodePacked(('x')))) {\n            return true;\n        } else if (keccak256(abi.encodePacked((_char))) == keccak256(abi.encodePacked(('O')))) {\n            return true;\n        } else if (keccak256(abi.encodePacked((_char))) == keccak256(abi.encodePacked(('o')))) {\n            return true;\n        } else {\n            return false;\n        }\n    }\n    \n    // Function for checking whether the given input to the function\n    // toss() is 'X' or 'O'.\n    function isStringX(string memory _char) private pure returns (bool) {\n        if (keccak256(abi.encodePacked((_char))) == keccak256(abi.encodePacked(('X')))) {\n            return true;\n        } else if (keccak256(abi.encodePacked((_char))) == keccak256(abi.encodePacked(('x')))) {\n            return true;\n        } else {\n            return false;\n        }\n    }\n    \n    // Function for appending 3 strings to a single string.\n    // It is used for updating the value of the state variable, status.\n    function append(string memory a, string memory b, string memory c) internal pure returns (string memory) {\n        return string(abi.encodePacked(a, b, c));\n    }\n    \n    // Function for converting the uint numbers from 0 to 9 into string format.\n    function uintToString(uint _cell) private pure returns (string memory) {\n        if (_cell == 0) {\n            return \"0\";\n        } else if (_cell == 1) {\n            return \"1\";\n        }  else if (_cell == 2) {\n            return \"2\";\n        }  else if (_cell == 3) {\n            return \"3\";\n        }  else if (_cell == 4) {\n            return \"4\";\n        }  else if (_cell == 5) {\n            return \"5\";\n        }  else if (_cell == 6) {\n            return \"6\";\n        }  else if (_cell == 7) {\n            return \"7\";\n        }  else if (_cell == 8) {\n            return \"8\";\n        }  else if (_cell == 9) {\n            return \"9\";\n        }  else {\n            return \"Invalid number\";\n        } \n    }\n\n}",
  "sourcePath": "/home/mikhil/job_assignments/tictactoe-solidity/contracts/tic_tac_toe.sol",
  "compiler": {
    "name": "solc",
    "version": "0.7.0+commit.9e61f92b.Emscripten.clang"
  },
  "schemaVersion": "3.3.0",
  "updatedAt": "2021-09-10T07:06:40.282Z",
  "networkType": "ethereum",
  "devdoc": {
    "kind": "dev",
    "methods": {},
    "version": 1
  },
  "userdoc": {
    "kind": "user",
    "methods": {},
    "version": 1
  }
}